8=FIX.4.4|9=93|35=A|49=107984|56=QUOTES|34=1|52=20200226-04:35:15|98=0|108=30|141=Y|553=107948|554=B31iFgMs|10=239|
