8=FIX.4.4|9=92|35=A|49=107948|56=QUOTES|34=1|52=20205526-21:55:06|98=0|108=0|141=Y|553=107948|554=B31iFgMs|10=193|
